{"abi":[{"type":"constructor","inputs":[{"name":"_target","type":"address","internalType":"address"}],"stateMutability":"nonpayable"},{"type":"function","name":"attack","inputs":[],"outputs":[],"stateMutability":"nonpayable"},{"type":"function","name":"target","inputs":[],"outputs":[{"name":"","type":"address","internalType":"contract AllOrNothing"}],"stateMutability":"view"}],"bytecode":{"object":"0x608060405234801561001057600080fd5b5060405161012f38038061012f83398101604081905261002f91610054565b600080546001600160a01b0319166001600160a01b0392909216919091179055610084565b60006020828403121561006657600080fd5b81516001600160a01b038116811461007d57600080fd5b9392505050565b609d806100926000396000f3fe6080604052348015600f57600080fd5b506004361060325760003560e01c80639e5faafc146037578063d4b83992146039575b600080fd5b005b600054604b906001600160a01b031681565b6040516001600160a01b03909116815260200160405180910390f3fea2646970667358221220a98ecf9a114353fd39c3fb6c763a83589c62ad19bc5f3ddd15566d8aa9c68ba564736f6c63430008140033","linkReferences":{}},"methodIdentifiers":{"attack()":"9e5faafc","target()":"d4b83992"},"id":29}