{"abi":[{"type":"constructor","inputs":[{"name":"_name","type":"string","internalType":"string"},{"name":"_symbol","type":"string","internalType":"string"},{"name":"_decimals","type":"uint8","internalType":"uint8"},{"name":"_initialSupply","type":"uint256","internalType":"uint256"}],"stateMutability":"nonpayable"},{"type":"function","name":"allowance","inputs":[{"name":"","type":"address","internalType":"address"},{"name":"","type":"address","internalType":"address"}],"outputs":[{"name":"","type":"uint256","internalType":"uint256"}],"stateMutability":"view"},{"type":"function","name":"approve","inputs":[{"name":"_spender","type":"address","internalType":"address"},{"name":"_value","type":"uint256","internalType":"uint256"}],"outputs":[{"name":"","type":"bool","internalType":"bool"}],"stateMutability":"nonpayable"},{"type":"function","name":"balanceOf","inputs":[{"name":"","type":"address","internalType":"address"}],"outputs":[{"name":"","type":"uint256","internalType":"uint256"}],"stateMutability":"view"},{"type":"function","name":"burn","inputs":[{"name":"_who","type":"address","internalType":"address"},{"name":"_value","type":"uint256","internalType":"uint256"}],"outputs":[],"stateMutability":"nonpayable"},{"type":"function","name":"decimals","inputs":[],"outputs":[{"name":"","type":"uint8","internalType":"uint8"}],"stateMutability":"view"},{"type":"function","name":"mint","inputs":[{"name":"_value","type":"uint256","internalType":"uint256"}],"outputs":[],"stateMutability":"nonpayable"},{"type":"function","name":"name","inputs":[],"outputs":[{"name":"","type":"string","internalType":"string"}],"stateMutability":"view"},{"type":"function","name":"owner","inputs":[],"outputs":[{"name":"","type":"address","internalType":"address"}],"stateMutability":"view"},{"type":"function","name":"symbol","inputs":[],"outputs":[{"name":"","type":"string","internalType":"string"}],"stateMutability":"view"},{"type":"function","name":"transfer","inputs":[{"name":"_to","type":"address","internalType":"address"},{"name":"_value","type":"uint256","internalType":"uint256"}],"outputs":[{"name":"","type":"bool","internalType":"bool"}],"stateMutability":"nonpayable"},{"type":"function","name":"transferFrom","inputs":[{"name":"_from","type":"address","internalType":"address"},{"name":"_to","type":"address","internalType":"address"},{"name":"_value","type":"uint256","internalType":"uint256"}],"outputs":[{"name":"","type":"bool","internalType":"bool"}],"stateMutability":"nonpayable"}],"bytecode":{"object":"0x608060405234801561001057600080fd5b506040516109a93803806109a98339818101604052608081101561003357600080fd5b810190808051604051939291908464010000000082111561005357600080fd5b90830190602082018581111561006857600080fd5b825164010000000081118282018810171561008257600080fd5b82525081516020918201929091019080838360005b838110156100af578181015183820152602001610097565b50505050905090810190601f1680156100dc5780820380516001836020036101000a031916815260200191505b50604052602001805160405193929190846401000000008211156100ff57600080fd5b90830190602082018581111561011457600080fd5b825164010000000081118282018810171561012e57600080fd5b82525081516020918201929091019080838360005b8381101561015b578181015183820152602001610143565b50505050905090810190601f1680156101885780820380516001836020036101000a031916815260200191505b5060409081526020828101519290910151865192945092506101af91600391870190610206565b5082516101c3906004906020860190610206565b506005805460ff90931660ff1990931692909217909155600280546001600160a01b03191633908117909155600090815260208190526040902055506102999050565b828054600181600116156101000203166002900490600052602060002090601f016020900481019282601f1061024757805160ff1916838001178555610274565b82800160010185558215610274579182015b82811115610274578251825591602001919060010190610259565b50610280929150610284565b5090565b5b808211156102805760008155600101610285565b610701806102a86000396000f3fe608060405234801561001057600080fd5b50600436106100a95760003560e01c80638da5cb5b116100715780638da5cb5b146101f757806395d89b411461021b5780639dc29fac14610223578063a0712d6814610251578063a9059cbb1461026e578063dd62ed3e1461029a576100a9565b806306fdde03146100ae578063095ea7b31461012b57806323b872dd1461016b578063313ce567146101a157806370a08231146101bf575b600080fd5b6100b66102c8565b6040805160208082528351818301528351919283929083019185019080838360005b838110156100f05781810151838201526020016100d8565b50505050905090810190601f16801561011d5780820380516001836020036101000a031916815260200191505b509250505060405180910390f35b6101576004803603604081101561014157600080fd5b506001600160a01b038135169060200135610356565b604080519115158252519081900360200190f35b6101576004803603606081101561018157600080fd5b506001600160a01b03813581169160208101359091169060400135610380565b6101a96104a6565b6040805160ff9092168252519081900360200190f35b6101e5600480360360208110156101d557600080fd5b50356001600160a01b03166104af565b60408051918252519081900360200190f35b6101ff6104c1565b604080516001600160a01b039092168252519081900360200190f35b6100b66104d0565b61024f6004803603604081101561023957600080fd5b506001600160a01b03813516906020013561052b565b005b61024f6004803603602081101561026757600080fd5b50356105b2565b6101576004803603604081101561028457600080fd5b506001600160a01b03813516906020013561061f565b6101e5600480360360408110156102b057600080fd5b506001600160a01b03813581169160200135166106ae565b6003805460408051602060026001851615610100026000190190941693909304601f8101849004840282018401909252818152929183018282801561034e5780601f106103235761010080835404028352916020019161034e565b820191906000526020600020905b81548152906001019060200180831161033157829003601f168201915b505050505081565b3360009081526001602081815260408084206001600160a01b039690961684529490529290205590565b6001600160a01b0383166000908152602081905260408120548211156103e4576040805162461bcd60e51b8152602060048201526014602482015273496e73756666696369656e742062616c616e636560601b604482015290519081900360640190fd5b6001600160a01b0384166000908152600160209081526040808320338452909152902054829003610455576040805162461bcd60e51b8152602060048201526016602482015275496e73756666696369656e7420616c6c6f77616e636560501b604482015290519081900360640190fd5b506001600160a01b0392831660008181526020818152604080832080548690039055949095168152838120805484019055908152600180855283822033835290945291909120805491909103905590565b60055460ff1681565b60006020819052908152604090205481565b6002546001600160a01b031681565b6004805460408051602060026001851615610100026000190190941693909304601f8101849004840282018401909252818152929183018282801561034e5780601f106103235761010080835404028352916020019161034e565b6001600160a01b03821660009081526020819052604090205481111561058f576040805162461bcd60e51b8152602060048201526014602482015273496e73756666696369656e742062616c616e636560601b604482015290519081900360640190fd5b6001600160a01b0390911660009081526020819052604090208054919091039055565b6002546001600160a01b03163314610607576040805162461bcd60e51b815260206004820152601360248201527213db9b1e481bdddb995c8818d85b881b5a5b9d606a1b604482015290519081900360640190fd5b33600090815260208190526040902080549091019055565b3360009081526020819052604081205482111561067a576040805162461bcd60e51b8152602060048201526014602482015273496e73756666696369656e742062616c616e636560601b604482015290519081900360640190fd5b5033600090815260208190526040808220805484900390556001600160a01b03841682529020805482019055600192915050565b60016020908152600092835260408084209091529082529020548156fea26469706673582212207a9e18da0caa758d13cb555a884c58cec600ba11a7c9bd54d5a24267ca9add2264736f6c63430007000033","linkReferences":{}},"methodIdentifiers":{"allowance(address,address)":"dd62ed3e","approve(address,uint256)":"095ea7b3","balanceOf(address)":"70a08231","burn(address,uint256)":"9dc29fac","decimals()":"313ce567","mint(uint256)":"a0712d68","name()":"06fdde03","owner()":"8da5cb5b","symbol()":"95d89b41","transfer(address,uint256)":"a9059cbb","transferFrom(address,address,uint256)":"23b872dd"},"id":21}