{"abi":[{"type":"function","name":"multicall","inputs":[{"name":"data","type":"bytes[]","internalType":"bytes[]"}],"outputs":[{"name":"results","type":"bytes[]","internalType":"bytes[]"}],"stateMutability":"payable"}],"bytecode":{"object":"0x608060405234801561001057600080fd5b506103fe806100206000396000f3fe60806040526004361061001e5760003560e01c8063ac9650d814610023575b600080fd5b6100366100313660046101d1565b61004c565b6040516100439190610296565b60405180910390f35b60608167ffffffffffffffff811115610067576100676102f8565b60405190808252806020026020018201604052801561009a57816020015b60608152602001906001900390816100855790505b50905060005b82811015610139576101098484838181106100bd576100bd61030e565b90506020028101906100cf9190610324565b8080601f01602080910402602001604051908101604052809392919081815260200183838082843760009201919091525061014092505050565b82828151811061011b5761011b61030e565b6020026020010181905250808061013190610372565b9150506100a0565b5092915050565b6060600080306001600160a01b03168460405161015d9190610399565b600060405180830381855af49150503d8060008114610198576040519150601f19603f3d011682016040523d82523d6000602084013e61019d565b606091505b5091509150816101ca578060405162461bcd60e51b81526004016101c191906103b5565b60405180910390fd5b9392505050565b600080602083850312156101e457600080fd5b823567ffffffffffffffff808211156101fc57600080fd5b818501915085601f83011261021057600080fd5b81358181111561021f57600080fd5b8660208260051b850101111561023457600080fd5b60209290920196919550909350505050565b60005b83811015610261578181015183820152602001610249565b50506000910152565b60008151808452610282816020860160208601610246565b601f01601f19169290920160200192915050565b6000602080830181845280855180835260408601915060408160051b870101925083870160005b828110156102eb57603f198886030184526102d985835161026a565b945092850192908501906001016102bd565b5092979650505050505050565b634e487b7160e01b600052604160045260246000fd5b634e487b7160e01b600052603260045260246000fd5b6000808335601e1984360301811261033b57600080fd5b83018035915067ffffffffffffffff82111561035657600080fd5b60200191503681900382131561036b57600080fd5b9250929050565b60006001820161039257634e487b7160e01b600052601160045260246000fd5b5060010190565b600082516103ab818460208701610246565b9190910192915050565b6020815260006101ca602083018461026a56fea26469706673582212200e2f90a3315582063763e2277f7429caf5a403a473f8a4e77a01aa58f0c8b73864736f6c63430008140033","linkReferences":{}},"methodIdentifiers":{"multicall(bytes[])":"ac9650d8"},"id":21}