{"abi":[{"type":"function","name":"allowance","inputs":[{"name":"","type":"address","internalType":"address"},{"name":"","type":"address","internalType":"address"}],"outputs":[{"name":"","type":"uint256","internalType":"uint256"}],"stateMutability":"view"},{"type":"function","name":"approve","inputs":[{"name":"spender","type":"address","internalType":"address"},{"name":"amount","type":"uint256","internalType":"uint256"}],"outputs":[],"stateMutability":"nonpayable"},{"type":"function","name":"balanceOf","inputs":[{"name":"","type":"address","internalType":"address"}],"outputs":[{"name":"","type":"uint256","internalType":"uint256"}],"stateMutability":"view"},{"type":"function","name":"deposit","inputs":[{"name":"to","type":"address","internalType":"address"}],"outputs":[],"stateMutability":"payable"},{"type":"function","name":"transfer","inputs":[{"name":"to","type":"address","internalType":"address"},{"name":"amount","type":"uint256","internalType":"uint256"}],"outputs":[],"stateMutability":"nonpayable"},{"type":"function","name":"transferFrom","inputs":[{"name":"from","type":"address","internalType":"address"},{"name":"to","type":"address","internalType":"address"},{"name":"amount","type":"uint256","internalType":"uint256"}],"outputs":[],"stateMutability":"nonpayable"},{"type":"function","name":"withdraw","inputs":[{"name":"amount","type":"uint256","internalType":"uint256"}],"outputs":[],"stateMutability":"nonpayable"},{"type":"function","name":"withdrawAll","inputs":[],"outputs":[],"stateMutability":"nonpayable"},{"type":"event","name":"Approval","inputs":[{"name":"owner","type":"address","indexed":true,"internalType":"address"},{"name":"spender","type":"address","indexed":true,"internalType":"address"},{"name":"amount","type":"uint256","indexed":false,"internalType":"uint256"}],"anonymous":false},{"type":"event","name":"Deposit","inputs":[{"name":"from","type":"address","indexed":true,"internalType":"address"},{"name":"amount","type":"uint256","indexed":false,"internalType":"uint256"}],"anonymous":false},{"type":"event","name":"Transfer","inputs":[{"name":"from","type":"address","indexed":true,"internalType":"address"},{"name":"to","type":"address","indexed":true,"internalType":"address"},{"name":"amount","type":"uint256","indexed":false,"internalType":"uint256"}],"anonymous":false},{"type":"event","name":"Withdraw","inputs":[{"name":"to","type":"address","indexed":true,"internalType":"address"},{"name":"amount","type":"uint256","indexed":false,"internalType":"uint256"}],"anonymous":false}],"bytecode":{"object":"0x608060405234801561001057600080fd5b506107da806100206000396000f3fe60806040526004361061007b5760003560e01c8063853828b61161004e578063853828b614610121578063a9059cbb14610136578063dd62ed3e14610156578063f340fa011461018e57600080fd5b8063095ea7b31461008057806323b872dd146100a25780632e1a7d4d146100c257806370a08231146100e2575b600080fd5b34801561008c57600080fd5b506100a061009b366004610660565b6101a1565b005b3480156100ae57600080fd5b506100a06100bd36600461068a565b610201565b3480156100ce57600080fd5b506100a06100dd3660046106c6565b610394565b3480156100ee57600080fd5b5061010f6100fd3660046106df565b60006020819052908152604090205481565b60405190815260200160405180910390f35b34801561012d57600080fd5b506100a061042b565b34801561014257600080fd5b506100a0610151366004610660565b610489565b34801561016257600080fd5b5061010f610171366004610701565b600160209081526000928352604080842090915290825290205481565b6100a061019c3660046106df565b610546565b3360008181526001602090815260408083206001600160a01b03871680855290835292819020859055518481529192917f8c5be1e5ebec7d5bd14f71427d1e84f3dd0314c0f7b2291e5b200ac8c7c3b92591015b60405180910390a35050565b6001600160a01b0383166000908152602081905260409020548111156102425760405162461bcd60e51b815260040161023990610734565b60405180910390fd5b6001600160a01b03831660009081526001602090815260408083203384529091529020548111156102ae5760405162461bcd60e51b8152602060048201526016602482015275696e73756666696369656e7420616c6c6f77616e636560501b6044820152606401610239565b6001600160a01b038316600090815260208190526040812080548392906102d6908490610778565b90915550506001600160a01b03821660009081526020819052604081208054839290610303908490610791565b90915550506001600160a01b03831660009081526001602090815260408083203384529091528120805483929061033b908490610778565b92505081905550816001600160a01b0316836001600160a01b03167fddf252ad1be2c89b69c2b068fc378daa952ba7f163c4a11628f55a4df523b3ef8360405161038791815260200190565b60405180910390a3505050565b336000908152602081905260409020548111156103c35760405162461bcd60e51b815260040161023990610734565b33600090815260208190526040812080548392906103e2908490610778565b909155506103f2905033826105a5565b60405181815233907f884edad9ce6fa2440d8a54cc123490eb96d2768479d49ff9c7366125a9424364906020015b60405180910390a250565b3360008181526020819052604090205461044591906105a5565b33600081815260208181526040808320839055519182527f884edad9ce6fa2440d8a54cc123490eb96d2768479d49ff9c7366125a9424364910160405180910390a2565b336000908152602081905260409020548111156104b85760405162461bcd60e51b815260040161023990610734565b33600090815260208190526040812080548392906104d7908490610778565b90915550506001600160a01b03821660009081526020819052604081208054839290610504908490610791565b90915550506040518181526001600160a01b0383169033907fddf252ad1be2c89b69c2b068fc378daa952ba7f163c4a11628f55a4df523b3ef906020016101f5565b6001600160a01b0381166000908152602081905260408120805434929061056e908490610791565b909155505060405134815233907fe1fffcc4923d04b559f4d29a8bfc6cda04eb5b0d3c460751c2402c5c5cc9109c90602001610420565b6000826001600160a01b03168260405160006040518083038185875af1925050503d80600081146105f2576040519150601f19603f3d011682016040523d82523d6000602084013e6105f7565b606091505b505090508061063f5760405162461bcd60e51b81526020600482015260146024820152733330b4b632b2103a379039b2b7321032ba3432b960611b6044820152606401610239565b505050565b80356001600160a01b038116811461065b57600080fd5b919050565b6000806040838503121561067357600080fd5b61067c83610644565b946020939093013593505050565b60008060006060848603121561069f57600080fd5b6106a884610644565b92506106b660208501610644565b9150604084013590509250925092565b6000602082840312156106d857600080fd5b5035919050565b6000602082840312156106f157600080fd5b6106fa82610644565b9392505050565b6000806040838503121561071457600080fd5b61071d83610644565b915061072b60208401610644565b90509250929050565b602080825260149082015273696e73756666696369656e742062616c616e636560601b604082015260600190565b634e487b7160e01b600052601160045260246000fd5b8181038181111561078b5761078b610762565b92915050565b8082018082111561078b5761078b61076256fea2646970667358221220def556ae916f263d1b6e9633717c798b8aa4adca0e21e83eb3254d02bc82d03264736f6c63430008140033","linkReferences":{}},"methodIdentifiers":{"allowance(address,address)":"dd62ed3e","approve(address,uint256)":"095ea7b3","balanceOf(address)":"70a08231","deposit(address)":"f340fa01","transfer(address,uint256)":"a9059cbb","transferFrom(address,address,uint256)":"23b872dd","withdraw(uint256)":"2e1a7d4d","withdrawAll()":"853828b6"},"id":40}