{"abi":[{"type":"constructor","inputs":[{"name":"_token","type":"address","internalType":"address"}],"stateMutability":"nonpayable"},{"type":"function","name":"deposit","inputs":[{"name":"amount","type":"uint256","internalType":"uint256"}],"outputs":[],"stateMutability":"nonpayable"},{"type":"function","name":"owner","inputs":[],"outputs":[{"name":"","type":"address","internalType":"address"}],"stateMutability":"view"},{"type":"function","name":"shares","inputs":[{"name":"","type":"address","internalType":"address"}],"outputs":[{"name":"","type":"uint256","internalType":"uint256"}],"stateMutability":"view"},{"type":"function","name":"token","inputs":[],"outputs":[{"name":"","type":"address","internalType":"contract IERC20"}],"stateMutability":"view"},{"type":"function","name":"totalShares","inputs":[],"outputs":[{"name":"","type":"uint256","internalType":"uint256"}],"stateMutability":"view"},{"type":"function","name":"withdraw","inputs":[{"name":"sharesAmount","type":"uint256","internalType":"uint256"}],"outputs":[],"stateMutability":"nonpayable"}],"bytecode":{"object":"0x608060405234801561001057600080fd5b5060405161062d38038061062d83398101604081905261002f91610062565b60008054336001600160a01b031991821617909155600180549091166001600160a01b0392909216919091179055610092565b60006020828403121561007457600080fd5b81516001600160a01b038116811461008b57600080fd5b9392505050565b61058c806100a16000396000f3fe608060405234801561001057600080fd5b50600436106100625760003560e01c80632e1a7d4d146100675780633a98ef391461007c5780638da5cb5b14610098578063b6b55f25146100c3578063ce7c2ac2146100d6578063fc0c546a146100f6575b600080fd5b61007a610075366004610413565b610109565b005b61008560035481565b6040519081526020015b60405180910390f35b6000546100ab906001600160a01b031681565b6040516001600160a01b03909116815260200161008f565b61007a6100d1366004610413565b610299565b6100856100e436600461042c565b60026020526000908152604090205481565b6001546100ab906001600160a01b031681565b600081116101325760405162461bcd60e51b81526004016101299061045c565b60405180910390fd5b6001546040516370a0823160e01b81523060048201526000916001600160a01b0316906370a0823190602401602060405180830381865afa15801561017b573d6000803e3d6000fd5b505050506040513d601f19601f8201168201806040525081019061019f91906104a0565b9050600060035482846101b291906104cf565b6101bc91906104ec565b336000908152600260205260408120805492935085929091906101e090849061050e565b9250508190555082600360008282546101f9919061050e565b90915550506000546001600160a01b0316330361021e5761021b6002826104cf565b90505b60015460405163a9059cbb60e01b8152336004820152602481018390526001600160a01b039091169063a9059cbb906044016020604051808303816000875af115801561026f573d6000803e3d6000fd5b505050506040513d601f19601f820116820180604052508101906102939190610521565b50505050565b600081116102b95760405162461bcd60e51b81526004016101299061045c565b6001546040516370a0823160e01b81523060048201526000916001600160a01b0316906370a0823190602401602060405180830381865afa158015610302573d6000803e3d6000fd5b505050506040513d601f19601f8201168201806040525081019061032691906104a0565b600354909150600081810361033c575082610354565b8261034783866104cf565b61035191906104ec565b90505b3360009081526002602052604081208054839290610373908490610543565b92505081905550806003600082825461038c9190610543565b90915550506001546040516323b872dd60e01b8152336004820152306024820152604481018690526001600160a01b03909116906323b872dd906064016020604051808303816000875af11580156103e8573d6000803e3d6000fd5b505050506040513d601f19601f8201168201806040525081019061040c9190610521565b5050505050565b60006020828403121561042557600080fd5b5035919050565b60006020828403121561043e57600080fd5b81356001600160a01b038116811461045557600080fd5b9392505050565b60208082526024908201527f5661756c743a20416d6f756e74206d75737420626520677265617465722074686040820152630616e20360e41b606082015260800190565b6000602082840312156104b257600080fd5b5051919050565b634e487b7160e01b600052601160045260246000fd5b80820281158282048414176104e6576104e66104b9565b92915050565b60008261050957634e487b7160e01b600052601260045260246000fd5b500490565b818103818111156104e6576104e66104b9565b60006020828403121561053357600080fd5b8151801515811461045557600080fd5b808201808211156104e6576104e66104b956fea2646970667358221220a01dbbccb9cd93299f00ce7dabf3c4e25cf0a14f6f8dc7b8752bcf1404fddea064736f6c63430008140033","linkReferences":{}},"methodIdentifiers":{"deposit(uint256)":"b6b55f25","owner()":"8da5cb5b","shares(address)":"ce7c2ac2","token()":"fc0c546a","totalShares()":"3a98ef39","withdraw(uint256)":"2e1a7d4d"},"id":35}