{"abi":[{"type":"constructor","inputs":[{"name":"betAmount","type":"uint256","internalType":"uint256"},{"name":"duration","type":"uint256","internalType":"uint256"}],"stateMutability":"nonpayable"},{"type":"function","name":"BET_AMOUNT","inputs":[],"outputs":[{"name":"","type":"uint256","internalType":"uint256"}],"stateMutability":"view"},{"type":"function","name":"DEADLINE","inputs":[],"outputs":[{"name":"","type":"uint256","internalType":"uint256"}],"stateMutability":"view"},{"type":"function","name":"DECLARE_DEADLINE","inputs":[],"outputs":[{"name":"","type":"uint256","internalType":"uint256"}],"stateMutability":"view"},{"type":"function","name":"bestPlayer","inputs":[],"outputs":[{"name":"","type":"address","internalType":"address"}],"stateMutability":"view"},{"type":"function","name":"bet","inputs":[{"name":"number","type":"uint256","internalType":"uint256"},{"name":"recipient","type":"address","internalType":"address"}],"outputs":[],"stateMutability":"payable"},{"type":"function","name":"bets","inputs":[{"name":"","type":"address","internalType":"address"}],"outputs":[{"name":"","type":"uint256","internalType":"uint256"}],"stateMutability":"view"},{"type":"function","name":"declareWinner","inputs":[{"name":"user","type":"address","internalType":"address"}],"outputs":[],"stateMutability":"nonpayable"},{"type":"function","name":"multicall","inputs":[{"name":"data","type":"bytes[]","internalType":"bytes[]"}],"outputs":[{"name":"results","type":"bytes[]","internalType":"bytes[]"}],"stateMutability":"payable"},{"type":"function","name":"owner","inputs":[],"outputs":[{"name":"","type":"address","internalType":"address"}],"stateMutability":"view"},{"type":"function","name":"publish","inputs":[{"name":"number","type":"uint256","internalType":"uint256"}],"outputs":[],"stateMutability":"nonpayable"},{"type":"function","name":"transfer","inputs":[{"name":"to","type":"address","internalType":"address"}],"outputs":[],"stateMutability":"nonpayable"},{"type":"function","name":"void","inputs":[],"outputs":[],"stateMutability":"nonpayable"},{"type":"function","name":"winningNumber","inputs":[],"outputs":[{"name":"","type":"uint256","internalType":"uint256"}],"stateMutability":"view"},{"type":"function","name":"withdrawWinnings","inputs":[],"outputs":[],"stateMutability":"nonpayable"}],"bytecode":{"object":"0x60e060405234801561001057600080fd5b50604051610eed380380610eed83398101604081905261002f9161006d565b600080546001600160a01b0319163317905560808290526100508142610091565b60a08190526100629062015180610091565b60c052506100b89050565b6000806040838503121561008057600080fd5b505080516020909101519092909150565b808201808211156100b257634e487b7160e01b600052601160045260246000fd5b92915050565b60805160a05160c051610dce61011f600039600081816102890152818161072a01526108870152600081816101eb0152818161047d01528181610526015281816107e0015261085c0152600081816101160152818161041e015261059b0152610dce6000f3fe6080604052600436106100dd5760003560e01c8063ac4c25b21161007f578063cc4ef11911610059578063cc4ef11914610257578063d59cff4b14610277578063db33f4f8146102ab578063eebcc566146102cb57600080fd5b8063ac4c25b21461020d578063ac9650d814610222578063cc42e83a1461024257600080fd5b80635f9b71ce116100bb5780635f9b71ce1461016157806389a78f1a146101745780638da5cb5b146101a1578063a082c86e146101d957600080fd5b80631a695230146100e25780633f9326af146101045780634664611e1461014b575b600080fd5b3480156100ee57600080fd5b506101026100fd366004610ae6565b6102eb565b005b34801561011057600080fd5b506101387f000000000000000000000000000000000000000000000000000000000000000081565b6040519081526020015b60405180910390f35b34801561015757600080fd5b5061013860025481565b61010261016f366004610b01565b6103c1565b34801561018057600080fd5b5061013861018f366004610ae6565b60036020526000908152604090205481565b3480156101ad57600080fd5b506000546101c1906001600160a01b031681565b6040516001600160a01b039091168152602001610142565b3480156101e557600080fd5b506101387f000000000000000000000000000000000000000000000000000000000000000081565b34801561021957600080fd5b506101026104f6565b610235610230366004610b2d565b6105e4565b6040516101429190610bf2565b34801561024e57600080fd5b506101026106d8565b34801561026357600080fd5b50610102610272366004610c54565b610794565b34801561028357600080fd5b506101387f000000000000000000000000000000000000000000000000000000000000000081565b3480156102b757600080fd5b506101026102c6366004610ae6565b610823565b3480156102d757600080fd5b506001546101c1906001600160a01b031681565b3360009081526003602052604081205490036103225760405162461bcd60e51b815260040161031990610c6d565b60405180910390fd5b6001600160a01b038116600090815260036020526040902054156103935760405162461bcd60e51b815260206004820152602260248201527f526563697069656e74206d757374206e6f74206861766520706c616365642062604482015261195d60f21b6064820152608401610319565b3360008181526003602052604080822080546001600160a01b03959095168352908220939093559081529055565b6001600160a01b0381166000908152600360205260409020541561041c5760405162461bcd60e51b8152602060048201526012602482015271105b1c9958591e481c1b1858d9590818995d60721b6044820152606401610319565b7f0000000000000000000000000000000000000000000000000000000000000000341461047b5760405162461bcd60e51b815260206004820152600d60248201526c56616c756520746f6f206c6f7760981b6044820152606401610319565b7f000000000000000000000000000000000000000000000000000000000000000042106104dc5760405162461bcd60e51b815260206004820152600f60248201526e111958591b1a5b99481c185cdcd959608a1b6044820152606401610319565b6001600160a01b0316600090815260036020526040902055565b3360009081526003602052604081205490036105245760405162461bcd60e51b815260040161031990610c6d565b7f000000000000000000000000000000000000000000000000000000000000000042106105855760405162461bcd60e51b815260206004820152600f60248201526e111958591b1a5b99481c185cdcd959608a1b6044820152606401610319565b33600081815260036020526040808220829055517f000000000000000000000000000000000000000000000000000000000000000080156108fc0292909190818181858888f193505050501580156105e1573d6000803e3d6000fd5b50565b60608167ffffffffffffffff8111156105ff576105ff610c9b565b60405190808252806020026020018201604052801561063257816020015b606081526020019060019003908161061d5790505b50905060005b828110156106d1576106a184848381811061065557610655610cb1565b90506020028101906106679190610cc7565b8080601f016020809104026020016040519081016040528093929190818152602001838380828437600092019190915250610a4292505050565b8282815181106106b3576106b3610cb1565b602002602001018190525080806106c990610d15565b915050610638565b5092915050565b6001546001600160a01b031633146107285760405162461bcd60e51b815260206004820152601360248201527226bab9ba103132903132b9ba10383630bcb2b960691b6044820152606401610319565b7f00000000000000000000000000000000000000000000000000000000000000004210156107685760405162461bcd60e51b815260040161031990610d3c565b60405133904780156108fc02916000818181858888f193505050501580156105e1573d6000803e3d6000fd5b6000546001600160a01b031633146107de5760405162461bcd60e51b815260206004820152600d60248201526c26bab9ba1031329037bbb732b960991b6044820152606401610319565b7f000000000000000000000000000000000000000000000000000000000000000042101561081e5760405162461bcd60e51b815260040161031990610d3c565b600255565b6001600160a01b038116600090815260036020526040812054900361085a5760405162461bcd60e51b815260040161031990610c6d565b7f000000000000000000000000000000000000000000000000000000000000000042101580156108a957507f000000000000000000000000000000000000000000000000000000000000000042105b6108c55760405162461bcd60e51b815260040161031990610d3c565b6002546000036109175760405162461bcd60e51b815260206004820152601c60248201527f57696e6e696e67206e756d626572206e6f74207075626c6973686564000000006044820152606401610319565b6001546001600160a01b031661094957600180546001600160a01b0319166001600160a01b0392909216919091179055565b6002546001600160a01b03821660009081526003602052604081205490911061098e576001600160a01b038216600090815260036020526040902054600254036109ac565b6002546001600160a01b038316600090815260036020526040902054035b6002546001546001600160a01b031660009081526003602052604081205492935091116109f7576001546001600160a01b031660009081526003602052604090205460025403610a17565b6002546001546001600160a01b0316600090815260036020526040902054035b905080821015610a3d57600180546001600160a01b0319166001600160a01b0385161790555b505050565b6060600080306001600160a01b031684604051610a5f9190610d69565b600060405180830381855af49150503d8060008114610a9a576040519150601f19603f3d011682016040523d82523d6000602084013e610a9f565b606091505b509150915081610ac3578060405162461bcd60e51b81526004016103199190610d85565b9392505050565b80356001600160a01b0381168114610ae157600080fd5b919050565b600060208284031215610af857600080fd5b610ac382610aca565b60008060408385031215610b1457600080fd5b82359150610b2460208401610aca565b90509250929050565b60008060208385031215610b4057600080fd5b823567ffffffffffffffff80821115610b5857600080fd5b818501915085601f830112610b6c57600080fd5b813581811115610b7b57600080fd5b8660208260051b8501011115610b9057600080fd5b60209290920196919550909350505050565b60005b83811015610bbd578181015183820152602001610ba5565b50506000910152565b60008151808452610bde816020860160208601610ba2565b601f01601f19169290920160200192915050565b6000602080830181845280855180835260408601915060408160051b870101925083870160005b82811015610c4757603f19888603018452610c35858351610bc6565b94509285019290850190600101610c19565b5092979650505050505050565b600060208284031215610c6657600080fd5b5035919050565b602080825260149082015273135d5cdd081a185d99481c1b1858d9590818995d60621b604082015260600190565b634e487b7160e01b600052604160045260246000fd5b634e487b7160e01b600052603260045260246000fd5b6000808335601e19843603018112610cde57600080fd5b83018035915067ffffffffffffffff821115610cf957600080fd5b602001915036819003821315610d0e57600080fd5b9250929050565b600060018201610d3557634e487b7160e01b600052601160045260246000fd5b5060010190565b602080825260139082015272111958591b1a5b99481b9bdd081c185cdcd959606a1b604082015260600190565b60008251610d7b818460208701610ba2565b9190910192915050565b602081526000610ac36020830184610bc656fea2646970667358221220b04705508809f64d91de0572ec50afd523df8789de632d4645ac6bec1905816864736f6c63430008140033","linkReferences":{}},"methodIdentifiers":{"BET_AMOUNT()":"3f9326af","DEADLINE()":"a082c86e","DECLARE_DEADLINE()":"d59cff4b","bestPlayer()":"eebcc566","bet(uint256,address)":"5f9b71ce","bets(address)":"89a78f1a","declareWinner(address)":"db33f4f8","multicall(bytes[])":"ac9650d8","owner()":"8da5cb5b","publish(uint256)":"cc4ef119","transfer(address)":"1a695230","void()":"ac4c25b2","winningNumber()":"4664611e","withdrawWinnings()":"cc42e83a"},"id":20}