{"abi":[{"type":"constructor","inputs":[],"stateMutability":"payable"},{"type":"function","name":"callMe","inputs":[],"outputs":[],"stateMutability":"nonpayable"}],"bytecode":{"object":"0x608060405260ff806100126000396000f3fe6080604052348015600f57600080fd5b506004361060285760003560e01c8063b0bea72514602d575b600080fd5b60336035565b005b604051600090339047908381818185875af1925050503d80600081146075576040519150601f19603f3d011682016040523d82523d6000602084013e607a565b606091505b505090508060c65760405162461bcd60e51b8152602060048201526015602482015274151d5d1bdc9a585b0e8818d85b1b0819985a5b1959605a1b604482015260640160405180910390fd5b5056fea2646970667358221220cd828471d4a227d5bff89206290f9fa1c5c1b3ac3cb61d14b138dd83de241a6964736f6c63430008130033","linkReferences":{}},"methodIdentifiers":{"callMe()":"b0bea725"},"id":21}