{"abi":[{"type":"function","name":"deposit","inputs":[],"outputs":[],"stateMutability":"payable"},{"type":"function","name":"totalDeposited","inputs":[],"outputs":[{"name":"","type":"uint256","internalType":"uint256"}],"stateMutability":"view"},{"type":"function","name":"withdraw","inputs":[{"name":"amount","type":"uint256","internalType":"uint256"}],"outputs":[],"stateMutability":"nonpayable"},{"type":"event","name":"Deposit","inputs":[{"name":"user","type":"address","indexed":true,"internalType":"address"},{"name":"amount","type":"uint256","indexed":false,"internalType":"uint256"}],"anonymous":false},{"type":"event","name":"Withdraw","inputs":[{"name":"user","type":"address","indexed":true,"internalType":"address"},{"name":"amount","type":"uint256","indexed":false,"internalType":"uint256"}],"anonymous":false}],"bytecode":{"object":"0x608060405234801561001057600080fd5b506101e5806100206000396000f3fe6080604052600436106100345760003560e01c80632e1a7d4d14610039578063d0e30db01461005b578063ff50abdc14610063575b600080fd5b34801561004557600080fd5b50610059610054366004610154565b61008b565b005b610059610107565b34801561006f57600080fd5b5061007960005481565b60405190815260200160405180910390f35b8060008082825461009c9190610183565b9091555050604051339082156108fc029083906000818181858888f193505050501580156100ce573d6000803e3d6000fd5b5060405181815233907f884edad9ce6fa2440d8a54cc123490eb96d2768479d49ff9c7366125a94243649060200160405180910390a250565b34600080828254610118919061019c565b909155505060405134815233907fe1fffcc4923d04b559f4d29a8bfc6cda04eb5b0d3c460751c2402c5c5cc9109c9060200160405180910390a2565b60006020828403121561016657600080fd5b5035919050565b634e487b7160e01b600052601160045260246000fd5b818103818111156101965761019661016d565b92915050565b808201808211156101965761019661016d56fea2646970667358221220d5f84a94c4339eee8c9ab01fc766793870f919c588e5f14ed073827026f4b42464736f6c63430008130033","linkReferences":{}},"methodIdentifiers":{"deposit()":"d0e30db0","totalDeposited()":"ff50abdc","withdraw(uint256)":"2e1a7d4d"},"id":24}